{
  "address": "0x604a06529Ba07dA9D35AcAb5b5EEa12CB5cf3455",
  "abi": [
    {
      "inputs": [
        {
          "internalType": "address",
          "name": "vrfCoordinatorV2",
          "type": "address"
        },
        {
          "internalType": "uint64",
          "name": "subscriptionId",
          "type": "uint64"
        },
        {
          "internalType": "bytes32",
          "name": "gasLane",
          "type": "bytes32"
        },
        {
          "internalType": "uint32",
          "name": "callbackGasLimit",
          "type": "uint32"
        },
        {
          "internalType": "string[3]",
          "name": "dogTokenUris",
          "type": "string[3]"
        },
        {
          "internalType": "uint256",
          "name": "mintFee",
          "type": "uint256"
        }
      ],
      "stateMutability": "nonpayable",
      "type": "constructor"
    },
    {
      "inputs": [
        {
          "internalType": "address",
          "name": "have",
          "type": "address"
        },
        {
          "internalType": "address",
          "name": "want",
          "type": "address"
        }
      ],
      "name": "OnlyCoordinatorCanFulfill",
      "type": "error"
    },
    {
      "inputs": [],
      "name": "RandomIpfsNft__NeedMoreETH",
      "type": "error"
    },
    {
      "inputs": [],
      "name": "RandomIpfsNft__RangeOutOfBounds",
      "type": "error"
    },
    {
      "inputs": [],
      "name": "RandomIpfsNft__TransferFailed",
      "type": "error"
    },
    {
      "anonymous": false,
      "inputs": [
        {
          "indexed": true,
          "internalType": "address",
          "name": "owner",
          "type": "address"
        },
        {
          "indexed": true,
          "internalType": "address",
          "name": "approved",
          "type": "address"
        },
        {
          "indexed": true,
          "internalType": "uint256",
          "name": "tokenId",
          "type": "uint256"
        }
      ],
      "name": "Approval",
      "type": "event"
    },
    {
      "anonymous": false,
      "inputs": [
        {
          "indexed": true,
          "internalType": "address",
          "name": "owner",
          "type": "address"
        },
        {
          "indexed": true,
          "internalType": "address",
          "name": "operator",
          "type": "address"
        },
        {
          "indexed": false,
          "internalType": "bool",
          "name": "approved",
          "type": "bool"
        }
      ],
      "name": "ApprovalForAll",
      "type": "event"
    },
    {
      "anonymous": false,
      "inputs": [
        {
          "indexed": false,
          "internalType": "enum RandomIpfsNft.Breed",
          "name": "dogBreed",
          "type": "uint8"
        },
        {
          "indexed": false,
          "internalType": "address",
          "name": "minter",
          "type": "address"
        }
      ],
      "name": "NftMinted",
      "type": "event"
    },
    {
      "anonymous": false,
      "inputs": [
        {
          "indexed": true,
          "internalType": "uint256",
          "name": "requestId",
          "type": "uint256"
        },
        {
          "indexed": false,
          "internalType": "address",
          "name": "requester",
          "type": "address"
        }
      ],
      "name": "NftRequested",
      "type": "event"
    },
    {
      "anonymous": false,
      "inputs": [
        {
          "indexed": true,
          "internalType": "address",
          "name": "previousOwner",
          "type": "address"
        },
        {
          "indexed": true,
          "internalType": "address",
          "name": "newOwner",
          "type": "address"
        }
      ],
      "name": "OwnershipTransferred",
      "type": "event"
    },
    {
      "anonymous": false,
      "inputs": [
        {
          "indexed": true,
          "internalType": "address",
          "name": "from",
          "type": "address"
        },
        {
          "indexed": true,
          "internalType": "address",
          "name": "to",
          "type": "address"
        },
        {
          "indexed": true,
          "internalType": "uint256",
          "name": "tokenId",
          "type": "uint256"
        }
      ],
      "name": "Transfer",
      "type": "event"
    },
    {
      "inputs": [
        {
          "internalType": "address",
          "name": "to",
          "type": "address"
        },
        {
          "internalType": "uint256",
          "name": "tokenId",
          "type": "uint256"
        }
      ],
      "name": "approve",
      "outputs": [],
      "stateMutability": "nonpayable",
      "type": "function"
    },
    {
      "inputs": [
        {
          "internalType": "address",
          "name": "owner",
          "type": "address"
        }
      ],
      "name": "balanceOf",
      "outputs": [
        {
          "internalType": "uint256",
          "name": "",
          "type": "uint256"
        }
      ],
      "stateMutability": "view",
      "type": "function"
    },
    {
      "inputs": [
        {
          "internalType": "uint256",
          "name": "tokenId",
          "type": "uint256"
        }
      ],
      "name": "getApproved",
      "outputs": [
        {
          "internalType": "address",
          "name": "",
          "type": "address"
        }
      ],
      "stateMutability": "view",
      "type": "function"
    },
    {
      "inputs": [
        {
          "internalType": "uint256",
          "name": "moddedRng",
          "type": "uint256"
        }
      ],
      "name": "getBreedFromModedRng",
      "outputs": [
        {
          "internalType": "enum RandomIpfsNft.Breed",
          "name": "",
          "type": "uint8"
        }
      ],
      "stateMutability": "pure",
      "type": "function"
    },
    {
      "inputs": [],
      "name": "getChanceArray",
      "outputs": [
        {
          "internalType": "uint8[3]",
          "name": "",
          "type": "uint8[3]"
        }
      ],
      "stateMutability": "pure",
      "type": "function"
    },
    {
      "inputs": [],
      "name": "getMintFee",
      "outputs": [
        {
          "internalType": "uint256",
          "name": "",
          "type": "uint256"
        }
      ],
      "stateMutability": "view",
      "type": "function"
    },
    {
      "inputs": [],
      "name": "getTokenCounter",
      "outputs": [
        {
          "internalType": "uint256",
          "name": "",
          "type": "uint256"
        }
      ],
      "stateMutability": "view",
      "type": "function"
    },
    {
      "inputs": [
        {
          "internalType": "uint256",
          "name": "index",
          "type": "uint256"
        }
      ],
      "name": "getTokenUris",
      "outputs": [
        {
          "internalType": "string",
          "name": "",
          "type": "string"
        }
      ],
      "stateMutability": "view",
      "type": "function"
    },
    {
      "inputs": [
        {
          "internalType": "address",
          "name": "owner",
          "type": "address"
        },
        {
          "internalType": "address",
          "name": "operator",
          "type": "address"
        }
      ],
      "name": "isApprovedForAll",
      "outputs": [
        {
          "internalType": "bool",
          "name": "",
          "type": "bool"
        }
      ],
      "stateMutability": "view",
      "type": "function"
    },
    {
      "inputs": [],
      "name": "name",
      "outputs": [
        {
          "internalType": "string",
          "name": "",
          "type": "string"
        }
      ],
      "stateMutability": "view",
      "type": "function"
    },
    {
      "inputs": [],
      "name": "owner",
      "outputs": [
        {
          "internalType": "address",
          "name": "",
          "type": "address"
        }
      ],
      "stateMutability": "view",
      "type": "function"
    },
    {
      "inputs": [
        {
          "internalType": "uint256",
          "name": "tokenId",
          "type": "uint256"
        }
      ],
      "name": "ownerOf",
      "outputs": [
        {
          "internalType": "address",
          "name": "",
          "type": "address"
        }
      ],
      "stateMutability": "view",
      "type": "function"
    },
    {
      "inputs": [
        {
          "internalType": "uint256",
          "name": "requestId",
          "type": "uint256"
        },
        {
          "internalType": "uint256[]",
          "name": "randomWords",
          "type": "uint256[]"
        }
      ],
      "name": "rawFulfillRandomWords",
      "outputs": [],
      "stateMutability": "nonpayable",
      "type": "function"
    },
    {
      "inputs": [],
      "name": "renounceOwnership",
      "outputs": [],
      "stateMutability": "nonpayable",
      "type": "function"
    },
    {
      "inputs": [],
      "name": "requestNft",
      "outputs": [
        {
          "internalType": "uint256",
          "name": "requestId",
          "type": "uint256"
        }
      ],
      "stateMutability": "payable",
      "type": "function"
    },
    {
      "inputs": [
        {
          "internalType": "uint256",
          "name": "",
          "type": "uint256"
        }
      ],
      "name": "s_requestIdToOwner",
      "outputs": [
        {
          "internalType": "address",
          "name": "",
          "type": "address"
        }
      ],
      "stateMutability": "view",
      "type": "function"
    },
    {
      "inputs": [
        {
          "internalType": "address",
          "name": "from",
          "type": "address"
        },
        {
          "internalType": "address",
          "name": "to",
          "type": "address"
        },
        {
          "internalType": "uint256",
          "name": "tokenId",
          "type": "uint256"
        }
      ],
      "name": "safeTransferFrom",
      "outputs": [],
      "stateMutability": "nonpayable",
      "type": "function"
    },
    {
      "inputs": [
        {
          "internalType": "address",
          "name": "from",
          "type": "address"
        },
        {
          "internalType": "address",
          "name": "to",
          "type": "address"
        },
        {
          "internalType": "uint256",
          "name": "tokenId",
          "type": "uint256"
        },
        {
          "internalType": "bytes",
          "name": "data",
          "type": "bytes"
        }
      ],
      "name": "safeTransferFrom",
      "outputs": [],
      "stateMutability": "nonpayable",
      "type": "function"
    },
    {
      "inputs": [
        {
          "internalType": "address",
          "name": "operator",
          "type": "address"
        },
        {
          "internalType": "bool",
          "name": "approved",
          "type": "bool"
        }
      ],
      "name": "setApprovalForAll",
      "outputs": [],
      "stateMutability": "nonpayable",
      "type": "function"
    },
    {
      "inputs": [
        {
          "internalType": "bytes4",
          "name": "interfaceId",
          "type": "bytes4"
        }
      ],
      "name": "supportsInterface",
      "outputs": [
        {
          "internalType": "bool",
          "name": "",
          "type": "bool"
        }
      ],
      "stateMutability": "view",
      "type": "function"
    },
    {
      "inputs": [],
      "name": "symbol",
      "outputs": [
        {
          "internalType": "string",
          "name": "",
          "type": "string"
        }
      ],
      "stateMutability": "view",
      "type": "function"
    },
    {
      "inputs": [
        {
          "internalType": "uint256",
          "name": "tokenId",
          "type": "uint256"
        }
      ],
      "name": "tokenURI",
      "outputs": [
        {
          "internalType": "string",
          "name": "",
          "type": "string"
        }
      ],
      "stateMutability": "view",
      "type": "function"
    },
    {
      "inputs": [
        {
          "internalType": "address",
          "name": "from",
          "type": "address"
        },
        {
          "internalType": "address",
          "name": "to",
          "type": "address"
        },
        {
          "internalType": "uint256",
          "name": "tokenId",
          "type": "uint256"
        }
      ],
      "name": "transferFrom",
      "outputs": [],
      "stateMutability": "nonpayable",
      "type": "function"
    },
    {
      "inputs": [
        {
          "internalType": "address",
          "name": "newOwner",
          "type": "address"
        }
      ],
      "name": "transferOwnership",
      "outputs": [],
      "stateMutability": "nonpayable",
      "type": "function"
    },
    {
      "inputs": [],
      "name": "withdraw",
      "outputs": [],
      "stateMutability": "nonpayable",
      "type": "function"
    }
  ],
  "transactionHash": "0x6a2aaa8713e82a2ed76e2303fa492feeda7ca078c6caadf88fb5e890f5e366fb",
  "args": [
    "0x6168499c0cFfCaCD319c818142124B7A15E857ab",
    "1002",
    "0xd89b2bf150e3b9e13446986e571fb9cab24b13cea0a43ea20a6049a85cc807cc",
    "500000",
    [
      "ipfs://QmaVkBn2tKmjbhphU7eyztbvSQU5EXDdqRyXZtRhSGgJGo",
      "ipfs://QmYQC5aGZu2PTH8XzbJrbDnvhj3gVs7ya33H9mqUNvST3d",
      "ipfs://QmZYmH5iDbD6v3U2ixoVAjioSzvWJszDzYdbeCLquGSpVm"
    ],
    "10000000000000000"
  ],
  "numDeployments": 1,
  "solcInputHash": "0900391c121980470369cc7d758dd135",
  "bytecode": "0x6101206040523480156200001257600080fd5b506040516200429c3803806200429c833981810160405281019062000038919062000809565b6040518060400160405280600d81526020017f52616e646f6d497066734e6674000000000000000000000000000000000000008152506040518060400160405280600381526020017f52494e0000000000000000000000000000000000000000000000000000000000815250878073ffffffffffffffffffffffffffffffffffffffff1660808173ffffffffffffffffffffffffffffffffffffffff1660601b81525050508160009080519060200190620000f59291906200029c565b5080600190805190602001906200010e9291906200029c565b5050506200013162000125620001ce60201b60201c565b620001d660201b60201c565b8573ffffffffffffffffffffffffffffffffffffffff1660a08173ffffffffffffffffffffffffffffffffffffffff1660601b815250508467ffffffffffffffff1660c08167ffffffffffffffff1660c01b815250508360e081815250508263ffffffff166101008163ffffffff1660e01b8152505081600a906003620001ba9291906200032d565b5080600b8190555050505050505062000929565b600033905090565b6000600760009054906101000a900473ffffffffffffffffffffffffffffffffffffffff16905081600760006101000a81548173ffffffffffffffffffffffffffffffffffffffff021916908373ffffffffffffffffffffffffffffffffffffffff1602179055508173ffffffffffffffffffffffffffffffffffffffff168173ffffffffffffffffffffffffffffffffffffffff167f8be0079c531659141344cd1fd0a4f28419497f9722a3daafe3b4186f6b6457e060405160405180910390a35050565b828054620002aa90620008f3565b90600052602060002090601f016020900481019282620002ce57600085556200031a565b82601f10620002e957805160ff19168380011785556200031a565b828001600101855582156200031a579182015b8281111562000319578251825591602001919060010190620002fc565b5b50905062000329919062000394565b5090565b82805482825590600052602060002090810192821562000381579160200282015b82811115620003805782518290805190602001906200036f9291906200029c565b50916020019190600101906200034e565b5b509050620003909190620003b3565b5090565b5b80821115620003af57600081600090555060010162000395565b5090565b5b80821115620003d75760008181620003cd9190620003db565b50600101620003b4565b5090565b508054620003e990620008f3565b6000825580601f10620003fd57506200041e565b601f0160209004906000526020600020908101906200041d919062000394565b5b50565b6000604051905090565b600080fd5b600080fd5b600073ffffffffffffffffffffffffffffffffffffffff82169050919050565b6000620004628262000435565b9050919050565b620004748162000455565b81146200048057600080fd5b50565b600081519050620004948162000469565b92915050565b600067ffffffffffffffff82169050919050565b620004b9816200049a565b8114620004c557600080fd5b50565b600081519050620004d981620004ae565b92915050565b6000819050919050565b620004f481620004df565b81146200050057600080fd5b50565b6000815190506200051481620004e9565b92915050565b600063ffffffff82169050919050565b62000535816200051a565b81146200054157600080fd5b50565b60008151905062000555816200052a565b92915050565b600080fd5b6000601f19601f8301169050919050565b7f4e487b7100000000000000000000000000000000000000000000000000000000600052604160045260246000fd5b620005ab8262000560565b810181811067ffffffffffffffff82111715620005cd57620005cc62000571565b5b80604052505050565b6000620005e262000421565b9050620005f08282620005a0565b919050565b600067ffffffffffffffff82111562000613576200061262000571565b5b602082029050919050565b600080fd5b600080fd5b600067ffffffffffffffff82111562000646576200064562000571565b5b620006518262000560565b9050602081019050919050565b60005b838110156200067e57808201518184015260208101905062000661565b838111156200068e576000848401525b50505050565b6000620006ab620006a58462000628565b620005d6565b905082815260208101848484011115620006ca57620006c962000623565b5b620006d78482856200065e565b509392505050565b600082601f830112620006f757620006f66200055b565b5b81516200070984826020860162000694565b91505092915050565b6000620007296200072384620005f5565b620005d6565b905080602084028301858111156200074657620007456200061e565b5b835b818110156200079457805167ffffffffffffffff8111156200076f576200076e6200055b565b5b8086016200077e8982620006df565b8552602085019450505060208101905062000748565b5050509392505050565b600082601f830112620007b657620007b56200055b565b5b6003620007c584828562000712565b91505092915050565b6000819050919050565b620007e381620007ce565b8114620007ef57600080fd5b50565b6000815190506200080381620007d8565b92915050565b60008060008060008060c087890312156200082957620008286200042b565b5b60006200083989828a0162000483565b96505060206200084c89828a01620004c8565b95505060406200085f89828a0162000503565b94505060606200087289828a0162000544565b935050608087015167ffffffffffffffff81111562000896576200089562000430565b5b620008a489828a016200079e565b92505060a0620008b789828a01620007f2565b9150509295509295509295565b7f4e487b7100000000000000000000000000000000000000000000000000000000600052602260045260246000fd5b600060028204905060018216806200090c57607f821691505b60208210811415620009235762000922620008c4565b5b50919050565b60805160601c60a05160601c60c05160c01c60e0516101005160e01c61391b620009816000396000610fe601526000610fa201526000610fc301526000610f6601526000818161098101526109d5015261391b6000f3fe6080604052600436106101665760003560e01c80636e02007d116100d157806395d89b411161008a578063b88d4fde11610064578063b88d4fde14610531578063c87b56dd1461055a578063e985e9c514610597578063f2fde38b146105d457610166565b806395d89b41146104bf578063a22cb465146104ea578063aa1524911461051357610166565b80636e02007d146103ad5780636f9bb541146103d857806370a0823114610415578063715018a6146104525780637a5caab3146104695780638da5cb5b1461049457610166565b806323b872dd1161012357806323b872dd1461029f5780633ccfd60b146102c857806342842e0e146102df57806356c9a627146103085780635dacf5f4146103455780636352211e1461037057610166565b806301ffc9a71461016b57806306fdde03146101a857806307197665146101d3578063081812fc14610210578063095ea7b31461024d5780631fe543e314610276575b600080fd5b34801561017757600080fd5b50610192600480360381019061018d91906124bc565b6105fd565b60405161019f9190612504565b60405180910390f35b3480156101b457600080fd5b506101bd6106df565b6040516101ca91906125b8565b60405180910390f35b3480156101df57600080fd5b506101fa60048036038101906101f59190612610565b610771565b60405161020791906125b8565b60405180910390f35b34801561021c57600080fd5b5061023760048036038101906102329190612610565b610821565b604051610244919061267e565b60405180910390f35b34801561025957600080fd5b50610274600480360381019061026f91906126c5565b610867565b005b34801561028257600080fd5b5061029d6004803603810190610298919061284d565b61097f565b005b3480156102ab57600080fd5b506102c660048036038101906102c191906128a9565b610a3f565b005b3480156102d457600080fd5b506102dd610a9f565b005b3480156102eb57600080fd5b50610306600480360381019061030191906128a9565b610b53565b005b34801561031457600080fd5b5061032f600480360381019061032a9190612610565b610b73565b60405161033c919061267e565b60405180910390f35b34801561035157600080fd5b5061035a610ba6565b60405161036791906129b4565b60405180910390f35b34801561037c57600080fd5b5061039760048036038101906103929190612610565b610bda565b6040516103a4919061267e565b60405180910390f35b3480156103b957600080fd5b506103c2610c8c565b6040516103cf91906129de565b60405180910390f35b3480156103e457600080fd5b506103ff60048036038101906103fa9190612610565b610c96565b60405161040c9190612a70565b60405180910390f35b34801561042157600080fd5b5061043c60048036038101906104379190612a8b565b610d7e565b60405161044991906129de565b60405180910390f35b34801561045e57600080fd5b50610467610e36565b005b34801561047557600080fd5b5061047e610e4a565b60405161048b91906129de565b60405180910390f35b3480156104a057600080fd5b506104a9610e54565b6040516104b6919061267e565b60405180910390f35b3480156104cb57600080fd5b506104d4610e7e565b6040516104e191906125b8565b60405180910390f35b3480156104f657600080fd5b50610511600480360381019061050c9190612ae4565b610f10565b005b61051b610f26565b60405161052891906129de565b60405180910390f35b34801561053d57600080fd5b5061055860048036038101906105539190612bd9565b611108565b005b34801561056657600080fd5b50610581600480360381019061057c9190612610565b61116a565b60405161058e91906125b8565b60405180910390f35b3480156105a357600080fd5b506105be60048036038101906105b99190612c5c565b61127d565b6040516105cb9190612504565b60405180910390f35b3480156105e057600080fd5b506105fb60048036038101906105f69190612a8b565b611311565b005b60007f80ac58cd000000000000000000000000000000000000000000000000000000007bffffffffffffffffffffffffffffffffffffffffffffffffffffffff1916827bffffffffffffffffffffffffffffffffffffffffffffffffffffffff191614806106c857507f5b5e139f000000000000000000000000000000000000000000000000000000007bffffffffffffffffffffffffffffffffffffffffffffffffffffffff1916827bffffffffffffffffffffffffffffffffffffffffffffffffffffffff1916145b806106d857506106d782611395565b5b9050919050565b6060600080546106ee90612ccb565b80601f016020809104026020016040519081016040528092919081815260200182805461071a90612ccb565b80156107675780601f1061073c57610100808354040283529160200191610767565b820191906000526020600020905b81548152906001019060200180831161074a57829003601f168201915b5050505050905090565b6060600a828154811061078757610786612cfd565b5b90600052602060002001805461079c90612ccb565b80601f01602080910402602001604051908101604052809291908181526020018280546107c890612ccb565b80156108155780601f106107ea57610100808354040283529160200191610815565b820191906000526020600020905b8154815290600101906020018083116107f857829003601f168201915b50505050509050919050565b600061082c826113ff565b6004600083815260200190815260200160002060009054906101000a900473ffffffffffffffffffffffffffffffffffffffff169050919050565b600061087282610bda565b90508073ffffffffffffffffffffffffffffffffffffffff168373ffffffffffffffffffffffffffffffffffffffff1614156108e3576040517f08c379a00000000000000000000000000000000000000000000000000000000081526004016108da90612d9e565b60405180910390fd5b8073ffffffffffffffffffffffffffffffffffffffff1661090261144a565b73ffffffffffffffffffffffffffffffffffffffff16148061093157506109308161092b61144a565b61127d565b5b610970576040517f08c379a000000000000000000000000000000000000000000000000000000000815260040161096790612e30565b60405180910390fd5b61097a8383611452565b505050565b7f000000000000000000000000000000000000000000000000000000000000000073ffffffffffffffffffffffffffffffffffffffff163373ffffffffffffffffffffffffffffffffffffffff1614610a3157337f00000000000000000000000000000000000000000000000000000000000000006040517f1cf993f4000000000000000000000000000000000000000000000000000000008152600401610a28929190612e50565b60405180910390fd5b610a3b828261150b565b5050565b610a50610a4a61144a565b826116ab565b610a8f576040517f08c379a0000000000000000000000000000000000000000000000000000000008152600401610a8690612eeb565b60405180910390fd5b610a9a838383611740565b505050565b610aa76119a7565b600047905060003373ffffffffffffffffffffffffffffffffffffffff1682604051610ad290612f3c565b60006040518083038185875af1925050503d8060008114610b0f576040519150601f19603f3d011682016040523d82523d6000602084013e610b14565b606091505b5050905080610b4f576040517fca7e25b700000000000000000000000000000000000000000000000000000000815260040160405180910390fd5b5050565b610b6e83838360405180602001604052806000815250611108565b505050565b60086020528060005260406000206000915054906101000a900473ffffffffffffffffffffffffffffffffffffffff1681565b610bae61238b565b6040518060600160405280600a60ff168152602001601e60ff168152602001606460ff16815250905090565b6000806002600084815260200190815260200160002060009054906101000a900473ffffffffffffffffffffffffffffffffffffffff169050600073ffffffffffffffffffffffffffffffffffffffff168173ffffffffffffffffffffffffffffffffffffffff161415610c83576040517f08c379a0000000000000000000000000000000000000000000000000000000008152600401610c7a90612f9d565b60405180910390fd5b80915050919050565b6000600954905090565b600080600090506000610ca7610ba6565b905060005b6003811015610d4657828510158015610ce95750818160038110610cd357610cd2612cfd565b5b602002015160ff1683610ce69190612fec565b85105b15610d0b57806002811115610d0157610d006129f9565b5b9350505050610d79565b818160038110610d1e57610d1d612cfd565b5b602002015160ff1683610d319190612fec565b92508080610d3e90613042565b915050610cac565b506040517f12806c9d00000000000000000000000000000000000000000000000000000000815260040160405180910390fd5b919050565b60008073ffffffffffffffffffffffffffffffffffffffff168273ffffffffffffffffffffffffffffffffffffffff161415610def576040517f08c379a0000000000000000000000000000000000000000000000000000000008152600401610de6906130fd565b60405180910390fd5b600360008373ffffffffffffffffffffffffffffffffffffffff1673ffffffffffffffffffffffffffffffffffffffff168152602001908152602001600020549050919050565b610e3e6119a7565b610e486000611a25565b565b6000600b54905090565b6000600760009054906101000a900473ffffffffffffffffffffffffffffffffffffffff16905090565b606060018054610e8d90612ccb565b80601f0160208091040260200160405190810160405280929190818152602001828054610eb990612ccb565b8015610f065780601f10610edb57610100808354040283529160200191610f06565b820191906000526020600020905b815481529060010190602001808311610ee957829003601f168201915b5050505050905090565b610f22610f1b61144a565b8383611aeb565b5050565b6000600b54341015610f64576040517f27e0dbf000000000000000000000000000000000000000000000000000000000815260040160405180910390fd5b7f000000000000000000000000000000000000000000000000000000000000000073ffffffffffffffffffffffffffffffffffffffff16635d3b1d307f00000000000000000000000000000000000000000000000000000000000000007f000000000000000000000000000000000000000000000000000000000000000060037f000000000000000000000000000000000000000000000000000000000000000060016040518663ffffffff1660e01b8152600401611027959493929190613195565b602060405180830381600087803b15801561104157600080fd5b505af1158015611055573d6000803e3d6000fd5b505050506040513d601f19601f8201168201806040525081019061107991906131fd565b9050336008600083815260200190815260200160002060006101000a81548173ffffffffffffffffffffffffffffffffffffffff021916908373ffffffffffffffffffffffffffffffffffffffff160217905550807ff873236e6cc0ecc5be1a9a35c95ee5b8d1ac4cc7bfef0cc5060391d6cc98e26b336040516110fd919061267e565b60405180910390a290565b61111961111361144a565b836116ab565b611158576040517f08c379a000000000000000000000000000000000000000000000000000000000815260040161114f90612eeb565b60405180910390fd5b61116484848484611c58565b50505050565b6060611175826113ff565b600060066000848152602001908152602001600020805461119590612ccb565b80601f01602080910402602001604051908101604052809291908181526020018280546111c190612ccb565b801561120e5780601f106111e35761010080835404028352916020019161120e565b820191906000526020600020905b8154815290600101906020018083116111f157829003601f168201915b50505050509050600061121f611cb4565b9050600081511415611235578192505050611278565b60008251111561126a578082604051602001611252929190613266565b60405160208183030381529060405292505050611278565b61127384611ccb565b925050505b919050565b6000600560008473ffffffffffffffffffffffffffffffffffffffff1673ffffffffffffffffffffffffffffffffffffffff16815260200190815260200160002060008373ffffffffffffffffffffffffffffffffffffffff1673ffffffffffffffffffffffffffffffffffffffff16815260200190815260200160002060009054906101000a900460ff16905092915050565b6113196119a7565b600073ffffffffffffffffffffffffffffffffffffffff168173ffffffffffffffffffffffffffffffffffffffff161415611389576040517f08c379a0000000000000000000000000000000000000000000000000000000008152600401611380906132fc565b60405180910390fd5b61139281611a25565b50565b60007f01ffc9a7000000000000000000000000000000000000000000000000000000007bffffffffffffffffffffffffffffffffffffffffffffffffffffffff1916827bffffffffffffffffffffffffffffffffffffffffffffffffffffffff1916149050919050565b61140881611d33565b611447576040517f08c379a000000000000000000000000000000000000000000000000000000000815260040161143e90612f9d565b60405180910390fd5b50565b600033905090565b816004600083815260200190815260200160002060006101000a81548173ffffffffffffffffffffffffffffffffffffffff021916908373ffffffffffffffffffffffffffffffffffffffff160217905550808273ffffffffffffffffffffffffffffffffffffffff166114c583610bda565b73ffffffffffffffffffffffffffffffffffffffff167f8c5be1e5ebec7d5bd14f71427d1e84f3dd0314c0f7b2291e5b200ac8c7c3b92560405160405180910390a45050565b60006008600084815260200190815260200160002060009054906101000a900473ffffffffffffffffffffffffffffffffffffffff16905060006009549050600060648460008151811061156257611561612cfd565b5b6020026020010151611574919061334b565b9050600061158182610c96565b905061158d8484611d9f565b61164f83600a8360028111156115a6576115a56129f9565b5b815481106115b7576115b6612cfd565b5b9060005260206000200180546115cc90612ccb565b80601f01602080910402602001604051908101604052809291908181526020018280546115f890612ccb565b80156116455780601f1061161a57610100808354040283529160200191611645565b820191906000526020600020905b81548152906001019060200180831161162857829003601f168201915b5050505050611dbd565b600954600960008282546116639190612fec565b925050819055507f8a269f26b688e110e9cbd887d163dab35cae678fa353a0292de532c0cac1ecdc818560405161169b92919061337c565b60405180910390a1505050505050565b6000806116b783610bda565b90508073ffffffffffffffffffffffffffffffffffffffff168473ffffffffffffffffffffffffffffffffffffffff1614806116f957506116f8818561127d565b5b8061173757508373ffffffffffffffffffffffffffffffffffffffff1661171f84610821565b73ffffffffffffffffffffffffffffffffffffffff16145b91505092915050565b8273ffffffffffffffffffffffffffffffffffffffff1661176082610bda565b73ffffffffffffffffffffffffffffffffffffffff16146117b6576040517f08c379a00000000000000000000000000000000000000000000000000000000081526004016117ad90613417565b60405180910390fd5b600073ffffffffffffffffffffffffffffffffffffffff168273ffffffffffffffffffffffffffffffffffffffff161415611826576040517f08c379a000000000000000000000000000000000000000000000000000000000815260040161181d906134a9565b60405180910390fd5b611831838383611e31565b61183c600082611452565b6001600360008573ffffffffffffffffffffffffffffffffffffffff1673ffffffffffffffffffffffffffffffffffffffff168152602001908152602001600020600082825461188c91906134c9565b925050819055506001600360008473ffffffffffffffffffffffffffffffffffffffff1673ffffffffffffffffffffffffffffffffffffffff16815260200190815260200160002060008282546118e39190612fec565b92505081905550816002600083815260200190815260200160002060006101000a81548173ffffffffffffffffffffffffffffffffffffffff021916908373ffffffffffffffffffffffffffffffffffffffff160217905550808273ffffffffffffffffffffffffffffffffffffffff168473ffffffffffffffffffffffffffffffffffffffff167fddf252ad1be2c89b69c2b068fc378daa952ba7f163c4a11628f55a4df523b3ef60405160405180910390a46119a2838383611e36565b505050565b6119af61144a565b73ffffffffffffffffffffffffffffffffffffffff166119cd610e54565b73ffffffffffffffffffffffffffffffffffffffff1614611a23576040517f08c379a0000000000000000000000000000000000000000000000000000000008152600401611a1a90613549565b60405180910390fd5b565b6000600760009054906101000a900473ffffffffffffffffffffffffffffffffffffffff16905081600760006101000a81548173ffffffffffffffffffffffffffffffffffffffff021916908373ffffffffffffffffffffffffffffffffffffffff1602179055508173ffffffffffffffffffffffffffffffffffffffff168173ffffffffffffffffffffffffffffffffffffffff167f8be0079c531659141344cd1fd0a4f28419497f9722a3daafe3b4186f6b6457e060405160405180910390a35050565b8173ffffffffffffffffffffffffffffffffffffffff168373ffffffffffffffffffffffffffffffffffffffff161415611b5a576040517f08c379a0000000000000000000000000000000000000000000000000000000008152600401611b51906135b5565b60405180910390fd5b80600560008573ffffffffffffffffffffffffffffffffffffffff1673ffffffffffffffffffffffffffffffffffffffff16815260200190815260200160002060008473ffffffffffffffffffffffffffffffffffffffff1673ffffffffffffffffffffffffffffffffffffffff16815260200190815260200160002060006101000a81548160ff0219169083151502179055508173ffffffffffffffffffffffffffffffffffffffff168373ffffffffffffffffffffffffffffffffffffffff167f17307eab39ab6107e8899845ad3d59bd9653f200f220920489ca2b5937696c3183604051611c4b9190612504565b60405180910390a3505050565b611c63848484611740565b611c6f84848484611e3b565b611cae576040517f08c379a0000000000000000000000000000000000000000000000000000000008152600401611ca590613647565b60405180910390fd5b50505050565b606060405180602001604052806000815250905090565b6060611cd6826113ff565b6000611ce0611cb4565b90506000815111611d005760405180602001604052806000815250611d2b565b80611d0a84611fd2565b604051602001611d1b929190613266565b6040516020818303038152906040525b915050919050565b60008073ffffffffffffffffffffffffffffffffffffffff166002600084815260200190815260200160002060009054906101000a900473ffffffffffffffffffffffffffffffffffffffff1673ffffffffffffffffffffffffffffffffffffffff1614159050919050565b611db9828260405180602001604052806000815250612133565b5050565b611dc682611d33565b611e05576040517f08c379a0000000000000000000000000000000000000000000000000000000008152600401611dfc906136d9565b60405180910390fd5b80600660008481526020019081526020016000209080519060200190611e2c9291906123ad565b505050565b505050565b505050565b6000611e5c8473ffffffffffffffffffffffffffffffffffffffff1661218e565b15611fc5578373ffffffffffffffffffffffffffffffffffffffff1663150b7a02611e8561144a565b8786866040518563ffffffff1660e01b8152600401611ea7949392919061374e565b602060405180830381600087803b158015611ec157600080fd5b505af1925050508015611ef257506040513d601f19601f82011682018060405250810190611eef91906137af565b60015b611f75573d8060008114611f22576040519150601f19603f3d011682016040523d82523d6000602084013e611f27565b606091505b50600081511415611f6d576040517f08c379a0000000000000000000000000000000000000000000000000000000008152600401611f6490613647565b60405180910390fd5b805181602001fd5b63150b7a0260e01b7bffffffffffffffffffffffffffffffffffffffffffffffffffffffff1916817bffffffffffffffffffffffffffffffffffffffffffffffffffffffff191614915050611fca565b600190505b949350505050565b6060600082141561201a576040518060400160405280600181526020017f3000000000000000000000000000000000000000000000000000000000000000815250905061212e565b600082905060005b6000821461204c57808061203590613042565b915050600a8261204591906137dc565b9150612022565b60008167ffffffffffffffff8111156120685761206761270a565b5b6040519080825280601f01601f19166020018201604052801561209a5781602001600182028036833780820191505090505b5090505b60008514612127576001826120b391906134c9565b9150600a856120c2919061334b565b60306120ce9190612fec565b60f81b8183815181106120e4576120e3612cfd565b5b60200101907effffffffffffffffffffffffffffffffffffffffffffffffffffffffffffff1916908160001a905350600a8561212091906137dc565b945061209e565b8093505050505b919050565b61213d83836121b1565b61214a6000848484611e3b565b612189576040517f08c379a000000000000000000000000000000000000000000000000000000000815260040161218090613647565b60405180910390fd5b505050565b6000808273ffffffffffffffffffffffffffffffffffffffff163b119050919050565b600073ffffffffffffffffffffffffffffffffffffffff168273ffffffffffffffffffffffffffffffffffffffff161415612221576040517f08c379a000000000000000000000000000000000000000000000000000000000815260040161221890613859565b60405180910390fd5b61222a81611d33565b1561226a576040517f08c379a0000000000000000000000000000000000000000000000000000000008152600401612261906138c5565b60405180910390fd5b61227660008383611e31565b6001600360008473ffffffffffffffffffffffffffffffffffffffff1673ffffffffffffffffffffffffffffffffffffffff16815260200190815260200160002060008282546122c69190612fec565b92505081905550816002600083815260200190815260200160002060006101000a81548173ffffffffffffffffffffffffffffffffffffffff021916908373ffffffffffffffffffffffffffffffffffffffff160217905550808273ffffffffffffffffffffffffffffffffffffffff16600073ffffffffffffffffffffffffffffffffffffffff167fddf252ad1be2c89b69c2b068fc378daa952ba7f163c4a11628f55a4df523b3ef60405160405180910390a461238760008383611e36565b5050565b6040518060600160405280600390602082028036833780820191505090505090565b8280546123b990612ccb565b90600052602060002090601f0160209004810192826123db5760008555612422565b82601f106123f457805160ff1916838001178555612422565b82800160010185558215612422579182015b82811115612421578251825591602001919060010190612406565b5b50905061242f9190612433565b5090565b5b8082111561244c576000816000905550600101612434565b5090565b6000604051905090565b600080fd5b600080fd5b60007fffffffff0000000000000000000000000000000000000000000000000000000082169050919050565b61249981612464565b81146124a457600080fd5b50565b6000813590506124b681612490565b92915050565b6000602082840312156124d2576124d161245a565b5b60006124e0848285016124a7565b91505092915050565b60008115159050919050565b6124fe816124e9565b82525050565b600060208201905061251960008301846124f5565b92915050565b600081519050919050565b600082825260208201905092915050565b60005b8381101561255957808201518184015260208101905061253e565b83811115612568576000848401525b50505050565b6000601f19601f8301169050919050565b600061258a8261251f565b612594818561252a565b93506125a481856020860161253b565b6125ad8161256e565b840191505092915050565b600060208201905081810360008301526125d2818461257f565b905092915050565b6000819050919050565b6125ed816125da565b81146125f857600080fd5b50565b60008135905061260a816125e4565b92915050565b6000602082840312156126265761262561245a565b5b6000612634848285016125fb565b91505092915050565b600073ffffffffffffffffffffffffffffffffffffffff82169050919050565b60006126688261263d565b9050919050565b6126788161265d565b82525050565b6000602082019050612693600083018461266f565b92915050565b6126a28161265d565b81146126ad57600080fd5b50565b6000813590506126bf81612699565b92915050565b600080604083850312156126dc576126db61245a565b5b60006126ea858286016126b0565b92505060206126fb858286016125fb565b9150509250929050565b600080fd5b7f4e487b7100000000000000000000000000000000000000000000000000000000600052604160045260246000fd5b6127428261256e565b810181811067ffffffffffffffff821117156127615761276061270a565b5b80604052505050565b6000612774612450565b90506127808282612739565b919050565b600067ffffffffffffffff8211156127a05761279f61270a565b5b602082029050602081019050919050565b600080fd5b60006127c96127c484612785565b61276a565b905080838252602082019050602084028301858111156127ec576127eb6127b1565b5b835b81811015612815578061280188826125fb565b8452602084019350506020810190506127ee565b5050509392505050565b600082601f83011261283457612833612705565b5b81356128448482602086016127b6565b91505092915050565b600080604083850312156128645761286361245a565b5b6000612872858286016125fb565b925050602083013567ffffffffffffffff8111156128935761289261245f565b5b61289f8582860161281f565b9150509250929050565b6000806000606084860312156128c2576128c161245a565b5b60006128d0868287016126b0565b93505060206128e1868287016126b0565b92505060406128f2868287016125fb565b9150509250925092565b600060039050919050565b600081905092915050565b6000819050919050565b600060ff82169050919050565b6129328161291c565b82525050565b60006129448383612929565b60208301905092915050565b6000602082019050919050565b612966816128fc565b6129708184612907565b925061297b82612912565b8060005b838110156129ac5781516129938782612938565b965061299e83612950565b92505060018101905061297f565b505050505050565b60006060820190506129c9600083018461295d565b92915050565b6129d8816125da565b82525050565b60006020820190506129f360008301846129cf565b92915050565b7f4e487b7100000000000000000000000000000000000000000000000000000000600052602160045260246000fd5b60038110612a3957612a386129f9565b5b50565b6000819050612a4a82612a28565b919050565b6000612a5a82612a3c565b9050919050565b612a6a81612a4f565b82525050565b6000602082019050612a856000830184612a61565b92915050565b600060208284031215612aa157612aa061245a565b5b6000612aaf848285016126b0565b91505092915050565b612ac1816124e9565b8114612acc57600080fd5b50565b600081359050612ade81612ab8565b92915050565b60008060408385031215612afb57612afa61245a565b5b6000612b09858286016126b0565b9250506020612b1a85828601612acf565b9150509250929050565b600080fd5b600067ffffffffffffffff821115612b4457612b4361270a565b5b612b4d8261256e565b9050602081019050919050565b82818337600083830152505050565b6000612b7c612b7784612b29565b61276a565b905082815260208101848484011115612b9857612b97612b24565b5b612ba3848285612b5a565b509392505050565b600082601f830112612bc057612bbf612705565b5b8135612bd0848260208601612b69565b91505092915050565b60008060008060808587031215612bf357612bf261245a565b5b6000612c01878288016126b0565b9450506020612c12878288016126b0565b9350506040612c23878288016125fb565b925050606085013567ffffffffffffffff811115612c4457612c4361245f565b5b612c5087828801612bab565b91505092959194509250565b60008060408385031215612c7357612c7261245a565b5b6000612c81858286016126b0565b9250506020612c92858286016126b0565b9150509250929050565b7f4e487b7100000000000000000000000000000000000000000000000000000000600052602260045260246000fd5b60006002820490506001821680612ce357607f821691505b60208210811415612cf757612cf6612c9c565b5b50919050565b7f4e487b7100000000000000000000000000000000000000000000000000000000600052603260045260246000fd5b7f4552433732313a20617070726f76616c20746f2063757272656e74206f776e6560008201527f7200000000000000000000000000000000000000000000000000000000000000602082015250565b6000612d8860218361252a565b9150612d9382612d2c565b604082019050919050565b60006020820190508181036000830152612db781612d7b565b9050919050565b7f4552433732313a20617070726f76652063616c6c6572206973206e6f7420746f60008201527f6b656e206f776e6572206e6f7220617070726f76656420666f7220616c6c0000602082015250565b6000612e1a603e8361252a565b9150612e2582612dbe565b604082019050919050565b60006020820190508181036000830152612e4981612e0d565b9050919050565b6000604082019050612e65600083018561266f565b612e72602083018461266f565b9392505050565b7f4552433732313a2063616c6c6572206973206e6f7420746f6b656e206f776e6560008201527f72206e6f7220617070726f766564000000000000000000000000000000000000602082015250565b6000612ed5602e8361252a565b9150612ee082612e79565b604082019050919050565b60006020820190508181036000830152612f0481612ec8565b9050919050565b600081905092915050565b50565b6000612f26600083612f0b565b9150612f3182612f16565b600082019050919050565b6000612f4782612f19565b9150819050919050565b7f4552433732313a20696e76616c696420746f6b656e2049440000000000000000600082015250565b6000612f8760188361252a565b9150612f9282612f51565b602082019050919050565b60006020820190508181036000830152612fb681612f7a565b9050919050565b7f4e487b7100000000000000000000000000000000000000000000000000000000600052601160045260246000fd5b6000612ff7826125da565b9150613002836125da565b9250827fffffffffffffffffffffffffffffffffffffffffffffffffffffffffffffffff0382111561303757613036612fbd565b5b828201905092915050565b600061304d826125da565b91507fffffffffffffffffffffffffffffffffffffffffffffffffffffffffffffffff8214156130805761307f612fbd565b5b600182019050919050565b7f4552433732313a2061646472657373207a65726f206973206e6f74206120766160008201527f6c6964206f776e65720000000000000000000000000000000000000000000000602082015250565b60006130e760298361252a565b91506130f28261308b565b604082019050919050565b60006020820190508181036000830152613116816130da565b9050919050565b6000819050919050565b6131308161311d565b82525050565b600067ffffffffffffffff82169050919050565b61315381613136565b82525050565b600061ffff82169050919050565b61317081613159565b82525050565b600063ffffffff82169050919050565b61318f81613176565b82525050565b600060a0820190506131aa6000830188613127565b6131b7602083018761314a565b6131c46040830186613167565b6131d16060830185613186565b6131de6080830184613186565b9695505050505050565b6000815190506131f7816125e4565b92915050565b6000602082840312156132135761321261245a565b5b6000613221848285016131e8565b91505092915050565b600081905092915050565b60006132408261251f565b61324a818561322a565b935061325a81856020860161253b565b80840191505092915050565b60006132728285613235565b915061327e8284613235565b91508190509392505050565b7f4f776e61626c653a206e6577206f776e657220697320746865207a65726f206160008201527f6464726573730000000000000000000000000000000000000000000000000000602082015250565b60006132e660268361252a565b91506132f18261328a565b604082019050919050565b60006020820190508181036000830152613315816132d9565b9050919050565b7f4e487b7100000000000000000000000000000000000000000000000000000000600052601260045260246000fd5b6000613356826125da565b9150613361836125da565b9250826133715761337061331c565b5b828206905092915050565b60006040820190506133916000830185612a61565b61339e602083018461266f565b9392505050565b7f4552433732313a207472616e736665722066726f6d20696e636f72726563742060008201527f6f776e6572000000000000000000000000000000000000000000000000000000602082015250565b600061340160258361252a565b915061340c826133a5565b604082019050919050565b60006020820190508181036000830152613430816133f4565b9050919050565b7f4552433732313a207472616e7366657220746f20746865207a65726f2061646460008201527f7265737300000000000000000000000000000000000000000000000000000000602082015250565b600061349360248361252a565b915061349e82613437565b604082019050919050565b600060208201905081810360008301526134c281613486565b9050919050565b60006134d4826125da565b91506134df836125da565b9250828210156134f2576134f1612fbd565b5b828203905092915050565b7f4f776e61626c653a2063616c6c6572206973206e6f7420746865206f776e6572600082015250565b600061353360208361252a565b915061353e826134fd565b602082019050919050565b6000602082019050818103600083015261356281613526565b9050919050565b7f4552433732313a20617070726f766520746f2063616c6c657200000000000000600082015250565b600061359f60198361252a565b91506135aa82613569565b602082019050919050565b600060208201905081810360008301526135ce81613592565b9050919050565b7f4552433732313a207472616e7366657220746f206e6f6e20455243373231526560008201527f63656976657220696d706c656d656e7465720000000000000000000000000000602082015250565b600061363160328361252a565b915061363c826135d5565b604082019050919050565b6000602082019050818103600083015261366081613624565b9050919050565b7f45524337323155524953746f726167653a2055524920736574206f66206e6f6e60008201527f6578697374656e7420746f6b656e000000000000000000000000000000000000602082015250565b60006136c3602e8361252a565b91506136ce82613667565b604082019050919050565b600060208201905081810360008301526136f2816136b6565b9050919050565b600081519050919050565b600082825260208201905092915050565b6000613720826136f9565b61372a8185613704565b935061373a81856020860161253b565b6137438161256e565b840191505092915050565b6000608082019050613763600083018761266f565b613770602083018661266f565b61377d60408301856129cf565b818103606083015261378f8184613715565b905095945050505050565b6000815190506137a981612490565b92915050565b6000602082840312156137c5576137c461245a565b5b60006137d38482850161379a565b91505092915050565b60006137e7826125da565b91506137f2836125da565b9250826138025761380161331c565b5b828204905092915050565b7f4552433732313a206d696e7420746f20746865207a65726f2061646472657373600082015250565b600061384360208361252a565b915061384e8261380d565b602082019050919050565b6000602082019050818103600083015261387281613836565b9050919050565b7f4552433732313a20746f6b656e20616c7265616479206d696e74656400000000600082015250565b60006138af601c8361252a565b91506138ba82613879565b602082019050919050565b600060208201905081810360008301526138de816138a2565b905091905056fea26469706673582212202796cc3ddd2e90df8e584752c7699ce37591ac0b5131ce94d564c5579470516364736f6c63430008080033",
  "devdoc": {
    "kind": "dev",
    "methods": {
      "approve(address,uint256)": {
        "details": "See {IERC721-approve}."
      },
      "balanceOf(address)": {
        "details": "See {IERC721-balanceOf}."
      },
      "getApproved(uint256)": {
        "details": "See {IERC721-getApproved}."
      },
      "isApprovedForAll(address,address)": {
        "details": "See {IERC721-isApprovedForAll}."
      },
      "name()": {
        "details": "See {IERC721Metadata-name}."
      },
      "owner()": {
        "details": "Returns the address of the current owner."
      },
      "ownerOf(uint256)": {
        "details": "See {IERC721-ownerOf}."
      },
      "renounceOwnership()": {
        "details": "Leaves the contract without owner. It will not be possible to call `onlyOwner` functions anymore. Can only be called by the current owner. NOTE: Renouncing ownership will leave the contract without an owner, thereby removing any functionality that is only available to the owner."
      },
      "safeTransferFrom(address,address,uint256)": {
        "details": "See {IERC721-safeTransferFrom}."
      },
      "safeTransferFrom(address,address,uint256,bytes)": {
        "details": "See {IERC721-safeTransferFrom}."
      },
      "setApprovalForAll(address,bool)": {
        "details": "See {IERC721-setApprovalForAll}."
      },
      "supportsInterface(bytes4)": {
        "details": "See {IERC165-supportsInterface}."
      },
      "symbol()": {
        "details": "See {IERC721Metadata-symbol}."
      },
      "tokenURI(uint256)": {
        "details": "See {IERC721Metadata-tokenURI}."
      },
      "transferFrom(address,address,uint256)": {
        "details": "See {IERC721-transferFrom}."
      },
      "transferOwnership(address)": {
        "details": "Transfers ownership of the contract to a new account (`newOwner`). Can only be called by the current owner."
      }
    },
    "version": 1
  },
  "userdoc": {
    "kind": "user",
    "methods": {},
    "version": 1
  },
  "storageLayout": {
    "storage": [
      {
        "astId": 292,
        "contract": "contracts/RandomIpfsNft.sol:RandomIpfsNft",
        "label": "_name",
        "offset": 0,
        "slot": "0",
        "type": "t_string_storage"
      },
      {
        "astId": 294,
        "contract": "contracts/RandomIpfsNft.sol:RandomIpfsNft",
        "label": "_symbol",
        "offset": 0,
        "slot": "1",
        "type": "t_string_storage"
      },
      {
        "astId": 298,
        "contract": "contracts/RandomIpfsNft.sol:RandomIpfsNft",
        "label": "_owners",
        "offset": 0,
        "slot": "2",
        "type": "t_mapping(t_uint256,t_address)"
      },
      {
        "astId": 302,
        "contract": "contracts/RandomIpfsNft.sol:RandomIpfsNft",
        "label": "_balances",
        "offset": 0,
        "slot": "3",
        "type": "t_mapping(t_address,t_uint256)"
      },
      {
        "astId": 306,
        "contract": "contracts/RandomIpfsNft.sol:RandomIpfsNft",
        "label": "_tokenApprovals",
        "offset": 0,
        "slot": "4",
        "type": "t_mapping(t_uint256,t_address)"
      },
      {
        "astId": 312,
        "contract": "contracts/RandomIpfsNft.sol:RandomIpfsNft",
        "label": "_operatorApprovals",
        "offset": 0,
        "slot": "5",
        "type": "t_mapping(t_address,t_mapping(t_address,t_bool))"
      },
      {
        "astId": 1280,
        "contract": "contracts/RandomIpfsNft.sol:RandomIpfsNft",
        "label": "_tokenURIs",
        "offset": 0,
        "slot": "6",
        "type": "t_mapping(t_uint256,t_string_storage)"
      },
      {
        "astId": 161,
        "contract": "contracts/RandomIpfsNft.sol:RandomIpfsNft",
        "label": "_owner",
        "offset": 0,
        "slot": "7",
        "type": "t_address"
      },
      {
        "astId": 2052,
        "contract": "contracts/RandomIpfsNft.sol:RandomIpfsNft",
        "label": "s_requestIdToOwner",
        "offset": 0,
        "slot": "8",
        "type": "t_mapping(t_uint256,t_address)"
      },
      {
        "astId": 2054,
        "contract": "contracts/RandomIpfsNft.sol:RandomIpfsNft",
        "label": "s_tokenCounter",
        "offset": 0,
        "slot": "9",
        "type": "t_uint256"
      },
      {
        "astId": 2057,
        "contract": "contracts/RandomIpfsNft.sol:RandomIpfsNft",
        "label": "s_dogTokenUris",
        "offset": 0,
        "slot": "10",
        "type": "t_array(t_string_storage)dyn_storage"
      },
      {
        "astId": 2059,
        "contract": "contracts/RandomIpfsNft.sol:RandomIpfsNft",
        "label": "i_mintFee",
        "offset": 0,
        "slot": "11",
        "type": "t_uint256"
      }
    ],
    "types": {
      "t_address": {
        "encoding": "inplace",
        "label": "address",
        "numberOfBytes": "20"
      },
      "t_array(t_string_storage)dyn_storage": {
        "base": "t_string_storage",
        "encoding": "dynamic_array",
        "label": "string[]",
        "numberOfBytes": "32"
      },
      "t_bool": {
        "encoding": "inplace",
        "label": "bool",
        "numberOfBytes": "1"
      },
      "t_mapping(t_address,t_bool)": {
        "encoding": "mapping",
        "key": "t_address",
        "label": "mapping(address => bool)",
        "numberOfBytes": "32",
        "value": "t_bool"
      },
      "t_mapping(t_address,t_mapping(t_address,t_bool))": {
        "encoding": "mapping",
        "key": "t_address",
        "label": "mapping(address => mapping(address => bool))",
        "numberOfBytes": "32",
        "value": "t_mapping(t_address,t_bool)"
      },
      "t_mapping(t_address,t_uint256)": {
        "encoding": "mapping",
        "key": "t_address",
        "label": "mapping(address => uint256)",
        "numberOfBytes": "32",
        "value": "t_uint256"
      },
      "t_mapping(t_uint256,t_address)": {
        "encoding": "mapping",
        "key": "t_uint256",
        "label": "mapping(uint256 => address)",
        "numberOfBytes": "32",
        "value": "t_address"
      },
      "t_mapping(t_uint256,t_string_storage)": {
        "encoding": "mapping",
        "key": "t_uint256",
        "label": "mapping(uint256 => string)",
        "numberOfBytes": "32",
        "value": "t_string_storage"
      },
      "t_string_storage": {
        "encoding": "bytes",
        "label": "string",
        "numberOfBytes": "32"
      },
      "t_uint256": {
        "encoding": "inplace",
        "label": "uint256",
        "numberOfBytes": "32"
      }
    }
  }
}